:100000000C9442000C9461000C948F000C94BD0081
:100010000C945F000C945F000C945F000C945F00E4
:100020000C945F000C945F000C945F000C945F00D4
:100030000C945F000C945D020C9488020C94B30243
:100040000C945F000C945F000C945F000C945F00B4
:100050000C945F00CE01C901C701BD01B801AE011A
:10006000A401D3010B0206020402FB01F601EC011C
:10007000E20110023E02390237022D0224021F0261
:100080001502430211241FBECFE5D8E0DEBFCDBF6D
:1000900010E0A0E6B0E0EEE6F8E002C005900D92B8
:1000A000AC36B107D9F720E0ACE6B0E001C01D9254
:1000B000A538B207E1F70E949C030C9435040C9418
:1000C00000001F920F920FB60F9211242F933F93AF
:1000D0004F935F936F937F938F939F93AF93BF9350
:1000E000EF93FF93E0916000F0916100EF3F8FE0AC
:1000F000F80709F009958FB780688FBFFF91EF91DE
:10010000BF91AF919F918F917F916F915F914F912F
:100110003F912F910F900FBE0F901F9018951F9237
:100120000F920FB60F9211242F933F934F935F932B
:100130006F937F938F939F93AF93BF93EF93FF93AF
:10014000E0916200F0916300EF3F8FE0F80709F063
:1001500009958FB780688FBFFF91EF91BF91AF91E5
:100160009F918F917F916F915F914F913F912F91CF
:100170000F900FBE0F901F9018951F920F920FB601
:100180000F9211242F933F934F935F936F937F931D
:100190008F939F93AF93BF93EF93FF93E09164008E
:1001A000F0916500EF3F8FE0F80709F009958FB7F0
:1001B00080688FBFFF91EF91BF91AF919F918F9119
:1001C0007F916F915F914F913F912F910F900FBE53
:1001D0000F901F901895FC01413011F190F04230C2
:1001E00079F4218181E090E0062E01C0880F0A9405
:1001F000EAF7282B218392818095892382830895B1
:100200000895228181E090E0062E01C0880F0A94B3
:10021000EAF7282B22839181809589238183089591
:10022000228181E090E0062E01C0880F0A94EAF74F
:100230008095282322839181982391830895FC013E
:100240008081811119C0818180936C00828181300D
:1002500059F1C0F18A30F1F18B3061F483B78064D9
:1002600083BF83B7886083BF42E063E086E390E0AA
:100270000E94EB0080E00895823021F08130D9F0B7
:1002800081E00895818180936E0082818130C1F187
:1002900078F18A3031F18B3069F785B5806485BD9E
:1002A00085B5886085BDE0CF83B7877F83BF83B77F
:1002B000806483BFD9CF918190936D001FBC8EBDA8
:1002C00080E0089583B78F7B83BF83B7877F83BF29
:1002D00080E0089583B7886083BF83B78F7B83BF37
:1002E000C3CF85B5886085BD85B58F7B85BDBCCF07
:1002F00085B58F7B85BD85B5877F85BD80E00895F9
:1003000085B5877F85BD85B5806485BDADCF8111FD
:1003100005C04830510548F080E00895813059F01B
:10032000823009F445C081E00895FA01E65DFF4F8F
:1003300083B70C94E6034830510570F7FA01EE5C80
:10034000FF4F8EB50C94E6038E7F83BF83B7846026
:1003500083BF83B7826083BF80E00895816083BFDD
:1003600083B78D7F83BF83B7846083BF80E00895A8
:100370008E7F83BF83B78D7FF5CF816083BF83B7C7
:10038000826083BF83B78B7F83BF80E008958E7FB9
:10039000F5CF816083BF83B78D7FF3CF8E7F83BF1F
:1003A00083B78D7FEECF816083BF83B78260DACF62
:1003B0004830510508F0B0CFFA01E65CFF4F85B533
:1003C0000C94E6038E7F8EBD8EB584608EBD8EB597
:1003D00082608EBD80E0089581608EBD8EB58D7F78
:1003E0008EBD8EB584608EBD80E008958E7F8EBDFB
:1003F0008EB58D7FF5CF81608EBD8EB582608EBD4E
:100400008EB58B7F8EBD88CF8E7FF6CF81608EBDFF
:100410008EB58D7FF4CF8E7F8EBD8EB58D7FEFCF65
:1004200081608EBD8EB58260DBCF8E7F85BD85B548
:100430008D7F85BD85B5846085BD80E00895816030
:1004400085BD85B58260F5CF816085BD85B582604B
:1004500085BD85B58B7F85BD5FCF8E7F85BD85B51D
:10046000846085BD85B5826085BD80E008958E7FFE
:10047000ECCF816085BD85B58D7FEACF8E7F85BD50
:1004800085B58D7FE5CF816085BD85B58D7FD1CF69
:1004900083B78F7E83BF83B7806283BF08958CBF8D
:1004A000089510BC83E389B988E18AB986E880BDE4
:1004B00008955F9BFECF8CB108951F920F920FB6E7
:1004C0000F9211242F933F934F935F936F937F93DA
:1004D0008F939F93AF93BF93EF93FF93E091660049
:1004E000F0916700EF3F8FE0F80709F00995FF9161
:1004F000EF91BF91AF919F918F917F916F915F919C
:100500004F913F912F910F900FBE0F901F90189514
:100510001F920F920FB60F9211242F933F934F9378
:100520005F936F937F938F939F93AF93BF93EF935B
:10053000FF93E0916800F0916900EF3F8FE0F807CA
:1005400009F00995FF91EF91BF91AF919F918F9124
:100550007F916F915F914F913F912F910F900FBEBF
:100560000F901F9018951F920F920FB60F921124A3
:100570002F933F934F935F936F937F938F939F93AB
:10058000AF93BF93EF93FF93E0916A00F0916B00FC
:10059000EF3F8FE0F80709F00995FF91EF91BF91C8
:1005A000AF919F918F917F916F915F914F913F910B
:1005B0002F910F900FBE0F901F901895D898D99833
:1005C0002BB3982F907F2F70922B9BBBDA9A2FEF33
:1005D00039EF90E0215030409040E1F700C000003A
:1005E000DA98EFE9FFE03197F1F700C000002BB394
:1005F000F0E18F9FC00111242F70282B2BBBDA9ABA
:100600002FEF39EF80E0215030408040E1F700C00B
:100610000000DA98EFE9FFE03197F1F700C0000041
:100620000895D09AD19AD29A8AB3806F8ABB83E315
:100630000E94DE0282E30E94DE0288E20E94DE0265
:100640008EE00E94DE0281E00E94DE028FE99FE0E0
:100650000197F1F700C000000895FC0120812223DA
:10066000D1F150E0D89AD9984BB3322F307F4F70E8
:10067000342B3BBBDA9AFFEF39EF40E0F1503040CA
:100680004040E1F700C00000DA98EFE9FFE0319761
:10069000F1F700C000004BB3F0E12F9F900111244F
:1006A0004F70422B4BBBDA9A2FEF39EF40E02150CD
:1006B00030404040E1F700C00000DA98EFE9FFE089
:1006C0003197F1F700C000005F5FFC01E50FF11DFD
:1006D00020812111C7CF0895CF93DF9300D0CDB7EC
:1006E000DEB789839A830E94510289819A810E9490
:1006F0001F0145E050E060E070E080E00E9487016B
:100700000E9448028FE790E00F900F90DF91CF9109
:100710000C944F020E9459028CBF8CB724E6829F32
:10072000C00111246FEF70E00E94D20360FD6F5F83
:1007300060936F00862F0895CF93DF9300D000D091
:10074000CDB7DEB70E94110381E00E94DE0219825C
:1007500088E08A838BE08B831C82CE0101960E9405
:100760006C038CB724E6829FC00111246FEF70E008
:100770000E94D20381E0860F809384004AE060E704
:1007800070E090E00E94000480E790E00E942D035A
:100790000E948A038093840081E00E94DE0280919F
:1007A0008400ECCF97FB072E16F4009407D077FD5A
:1007B00009D00E94EC0307FC05D03EF4909581958A
:1007C0009F4F0895709561957F4F0895EE0FFF1F1D
:1007D0000590F491E02D0994AA1BBB1B51E107C0C1
:1007E000AA1FBB1FA617B70710F0A61BB70B881FC1
:1007F000991F5A95A9F780959095BC01CD01089550
:10080000BB274A3031F4992322F4BDE290958195BB
:100810009F4F0C940C04BB27FB015527AA27880F78
:10082000991FAA1FA41710F0A41B83955051B9F764
:10083000A05DAA3308F0A95DA193009779F7B111E3
:10084000B1931192CB010C942504DC01FC01672FBC
:1008500071917723E1F7329704C07C916D93708397
:0E0860006291AE17BF07C8F30895F894FFCF5A
:0C086E00FF0FFF0FFF0FFF0FFF0FFF0F2A
:00000001FF
