:100000000C942A000C940D010C943B010C94690192
:100010000C9447000C9447000C9447000C94470044
:100020000C9447000C9447000C9447000C94470034
:100030000C9447000C940C020C9437020C9462024E
:100040000C9447000C9447000C9447000C94470014
:100050000C94470011241FBECFE5D8E0DEBFCDBF12
:1000600010E0A0E6B0E0E4EAF6E002C005900D92F0
:10007000A438B107D9F720E0A4E8B0E001C01D9290
:10008000A438B207E1F70E943B030C9450030C9490
:1000900000008130D1F058F0823041F4662319F12C
:1000A000613021F584B78F7B84BF08950895613056
:1000B00099F120F1623049F16330C1F485B7816074
:1000C00085BF85B78D7F85BF0895613061F178F078
:1000D000623081F1633051F485B7846085BF85B7A4
:1000E000877F85BF089584B7806484BF089585B7EE
:1000F000846085BF85B7886085BF089585B78160B6
:1001000085BF85B7826085BF089585B78E7F85BF1F
:1001100085B78D7F85BF089585B78E7F85BF85B7ED
:10012000826085BF089585B78B7F85BF85B788605E
:1001300085BF089585B78B7F85BF85B7877F85BFCE
:100140000895813021F198F0823081F440E062E03E
:1001500080E390E00E94970141E062E080E390E05C
:100160000E94CB018BB780628BBF0895089540E059
:1001700062E080E390E00E94970141E062E080E36A
:1001800090E00E94CB018BB780648BBF089540E064
:1001900063E080E390E00E94970141E063E080E348
:1001A00090E00E94CB018BB780688BBF0895CF93FE
:1001B000DF9300D0CDB7DEB77A83698329813A8196
:1001C0002F3F3F4059F08130C9F068F0823031F460
:1001D00089819A8190936500809364000F900F90BD
:1001E000DF91CF91089589819A81909361008093E6
:1001F00060000F900F90DF91CF91089589819A81CF
:1002000090936300809362000F900F90DF91CF91E5
:1002100008958FB780688FBF08951F920F920FB611
:100220000F9211242F933F934F935F936F937F937C
:100230008F939F93AF93BF93EF93FF93E0916000F1
:10024000F0916100EF3F8FE0F80709F009958FB753
:1002500080688FBFFF91EF91BF91AF919F918F9178
:100260007F916F915F914F913F912F910F900FBEB2
:100270000F901F9018951F920F920FB60F92112496
:100280002F933F934F935F936F937F938F939F939E
:10029000AF93BF93EF93FF93E0916200F0916300FF
:1002A000EF3F8FE0F80709F009958FB780688FBF9F
:1002B000FF91EF91BF91AF919F918F917F916F913E
:1002C0005F914F913F912F910F900FBE0F901F9014
:1002D00018951F920F920FB60F9211242F933F93F0
:1002E0004F935F936F937F938F939F93AF93BF933E
:1002F000EF93FF93E0916400F0916500EF3F8FE092
:10030000F80709F009958FB780688FBFFF91EF91CB
:10031000BF91AF919F918F917F916F915F914F911D
:100320003F912F910F900FBE0F901F901895FC01D9
:10033000413011F190F0423079F4218181E090E078
:10034000062E01C0880F0A94EAF7282B2183928198
:1003500080958923828308950895228181E090E029
:10036000062E01C0880F0A94EAF7282B2283918178
:100370008095892381830895228181E090E0062E73
:1003800001C0880F0A94EAF780952823228391817F
:10039000982391830895442371F04130C1F4FC0106
:1003A000428121E030E0062E01C0220F0A94EAF7D4
:1003B000422B42830895FC01428121E030E0062E69
:1003C00001C0220F0A94EAF720952423228308957E
:1003D000FC01208181E090E0062E02C0880F991F69
:1003E0000A94E2F730E08223932302C09595879523
:1003F0006A95E2F7019711F481E0089580E008958D
:1004000010BC83E389B988E18AB986E880BD089584
:100410005D9BFECF8CB908951F920F920FB60F927D
:1004200011242F933F934F935F936F937F938F93F9
:100430009F93AF93BF93EF93FF93E0916600F0918A
:100440006700EF3F8FE0F80709F00995FF91EF9102
:10045000BF91AF919F918F917F916F915F914F91DC
:100460003F912F910F900FBE0F901F9018951F92E4
:100470000F920FB60F9211242F933F934F935F93D8
:100480006F937F938F939F93AF93BF93EF93FF935C
:10049000E0916800F0916900EF3F8FE0F80709F004
:1004A0000995FF91EF91BF91AF919F918F917F91AE
:1004B0006F915F914F913F912F910F900FBE0F90D1
:1004C0001F9018951F920F920FB60F9211242F9321
:1004D0003F934F935F936F937F938F939F93AF93CC
:1004E000BF93EF93FF93E0916A00F0916B00EF3FB1
:1004F0008FE0F80709F00995FF91EF91BF91AF9157
:100500009F918F917F916F915F914F913F912F912B
:100510000F900FBE0F901F901895CF93DF93EC01B3
:100520000E9409016D818C810E9449008C810E948A
:10053000A1002C81213039F1B8F0223049F06A81D4
:10054000888199810E94E8018B83DF91CF91089582
:1005500086E390E0998388832A8362E00E94E80121
:100560008B83DF91CF91089580E390E09983888316
:1005700082E08A8380E390E062E00E94E8018B835E
:10058000DF91CF91089580E390E09983888383E0A1
:100590008A8380E390E063E00E94E8018B83DF912F
:1005A000CF910895FC0124812130D9F078F02230D8
:1005B00029F06281808191810C94E80186E390E0CA
:1005C00091838083228362E00C94E80180E390E0D1
:1005D0009183808382E0828380E390E062E00C94E8
:1005E000E80180E390E09183808383E0828380E36D
:1005F00090E063E00C94E80182E790E00E94D20270
:10060000811119C0E0917800EF5FEB3054F4E09372
:100610007800FF27E7FDF095E758FF4F80810C94A5
:1006200008028AE080937800EAE0F0E0E758FF4FA4
:1006300080810C94080208958CE690E00E94D2021A
:1006400081110FC0E0917800E150E7FD0BC0E0930D
:100650007800FF27E7FDF095E758FF4F80810C9465
:100660000802089510927800E0E0F0E0E758FF4FAC
:1006700080810C9408020E94000282E790E00E94B0
:100680008D028CE690E00E948D026CEF72E080E0BB
:100690000E94D7006CE173E081E00E94D700FFCF99
:0406A000F894FFCFFC
:1006A400FF0FFF0FFF0FFF0FFF0FFF0F30000301BE
:1006B4000101300002010001050019334C667F99E5
:0406C400B2CCE5FFD0
:00000001FF
